:100000000C9434000C9451000C9451000C94510049
:100010000C9451000C9451000C9451000C9451001C
:100020000C9451000C9451000C9451000C941E122D
:100030000C9451000C9451000C9451000C945100FC
:100040000C9451000C9451000C945B010C94190118
:100050000C9451000C9451000C9451000C945100DC
:100060000C9451000C94510011241FBECFEFD8E026
:10007000DEBFCDBF11E0A0E0B1E0E4E6FBE202C0EC
:1000800005900D92AA35B107D9F717E0AAE5B1E0BE
:1000900001C01D92AF3DB107E1F70E9456000C94DC
:1000A000B0150C9400000E94650F0895EF92FF9226
:1000B0000F93DF93CF930F92CDB7DEB7CE010196AA
:1000C00060E570E041E050E00E94921569816F5F49
:1000D000698380E590E00E94A2150E94BC0060E860
:1000E00075E280E090E044E60E94C40181EB90E07C
:1000F00060E071E045E550E020E030E002E0EE2411
:10010000FF240E94810983E00E947D120E947A0AE6
:1001100080E090E00F90CF91DF910F91FF90EF90F2
:100120000895EF92FF920F931F93CF93DF937C017B
:100130008B01C0E0D0E00BC0F701EC0FFD1F80E0A9
:1001400090E0608140E050E00E949C012196C01741
:10015000D10790F3DF91CF911F910F91FF90EF9016
:10016000089584EF91E00E947D0886E091E06DE0C3
:1001700070E00E949100F5CF8FEF8093140184B955
:100180008091140185B908951F93282F8830E8F4D1
:1001900081E090E002C0880F991F2A95E2F7182F9E
:1001A0000E94760380911401812329F0809114012B
:1001B0001095182303C080911401182B109314017B
:1001C0008091140185B90E94B8061F9108950F937C
:1001D0001F93282F062F8830D8F481E090E002C0CA
:1001E000880F991F2A95E2F7182F0E947603013095
:1001F00029F4809114011095182303C080911401F3
:10020000182B109314018091140185B90E94B8062F
:100210001F910F9108950FB6F8940F92E1ECF0E062
:1002200080818F7D808380818F7780830F900FBE48
:1002300008951F920F920FB60F9211242F933F93A0
:100240004F935F936F937F938F939F93AF93BF93DE
:10025000EF93FF93DF93CF9300D0CDB7DEB78091BC
:100260005C0190915D01BE016F5F7F4FAE014E5FFB
:100270005F4F0E941D0C813021F489818093C6005C
:1002800005C08091C1008F7D8093C1000F900F90B9
:10029000CF91DF91FF91EF91BF91AF919F918F919E
:1002A0007F916F915F914F913F912F910F900FBE72
:1002B0000F901F9018951F920F920FB60F92112456
:1002C0002F933F934F935F936F937F938F939F935E
:1002D000AF93BF93EF93FF93DF93CF9300D0CDB74E
:1002E000DEB71A828091C600898380915A0190916D
:1002F0005B01BE016F5F7F4FAE014E5F5F4F20E03D
:100300000E946E0C8A81882311F00E9421120F90A6
:100310000F90CF91DF91FF91EF91BF91AF919F919E
:100320008F917F916F915F914F913F912F910F909E
:100330000FBE0F901F901895DF93CF930F92CDB7FC
:10034000DEB7698380915C0190915D01BE016F5FB2
:100350007F4F20E00E94990D813011F080E006C0AF
:100360008091C10080628093C10081E00F90CF91A5
:10037000DF91089580915A0190915B0120E00E94E5
:10038000DF0C811181E00895DF92EF92FF920F93CD
:100390001F937B018C01D42E0FB6F8940F92842FFB
:1003A00061E040E00E94860E90935B0180935A01C9
:1003B0008D2D61E040E00E94860E90935D01809358
:1003C0005C0194E0EE0CFF1C001F111F9A95D1F701
:1003D00060E072E18AE790E0A80197010E944C1565
:1003E00021503040404050402093C400232F342FF0
:1003F000452F55272093C50088E98093C10086E0EA
:100400008093C2000F900FBE80E090E01F910F918B
:10041000FF90EF90DF90089590E080915E01882337
:1004200009F491E0892F0895F5E00F2EF6E01F2ED4
:10043000F7E02F2EF8E03F2EF9E04F2EFAE05F2E86
:10044000FBE06F2EFCE07F2EFDE08F2EFEE09F2E66
:10045000FFE0AF2EF0E1BF2EF1E1CF2EF2E1DF2E73
:10046000F3E1EF2EF4E1FF2E05E116E127E138E19B
:1004700049E15AE16BE17CE18DE19EE1AFE1B0E25F
:10048000E1E2F5E0F01100925E01F6E0F111009278
:100490005E01F7E0F21100925E01F8E0F3110092C4
:1004A0005E01F9E0F41100925E01FAE0F5110092AC
:1004B0005E01FBE0F61100925E01FCE0F711009294
:1004C0005E01FDE0F81100925E01FEE0F91100927C
:1004D0005E01FFE0FA1100925E01F0E1FB11009273
:1004E0005E01F1E1FC1100925E01F2E1FD1100926A
:1004F0005E01F3E1FE1100925E01F4E1FF11009252
:100500005E01F5E1F01300925E01F6E1F113009255
:100510005E01F7E1F21300925E01F8E1F31300923D
:100520005E01F9E1F41300925E01FAE1F513009225
:100530005E01FBE1F61300925E01FCE1F71300920D
:100540005E01FDE1F81300925E01FEE1F9130092F5
:100550005E01FFE1FA1300925E01F0E2FB130092EC
:100560005E01F1E2FE1300925E015ECFF1E00F2E1C
:10057000F2E01F2EF3E02F2EF4E03F2EF5E04F2E99
:10058000F6E05F2EF7E06F2EF8E07F2EF9E08F2E79
:10059000FAE09F2EFBE0AF2EFCE0BF2EFDE0CF2E59
:1005A000FEE0DF2EFFE0EF2EF0E1FF2E01E112E191
:1005B00023E134E145E156E167E178E189E19AE13F
:1005C000ABE1BCE1EDE1F1E0F01100925E01F2E09F
:1005D000F11100925E01F3E0F21100925E01F4E08D
:1005E000F31100925E01F5E0F41100925E01F6E075
:1005F000F51100925E01F7E0F61100925E01F8E05D
:10060000F71100925E01F9E0F81100925E01FAE044
:10061000F91100925E01FBE0FA1100925E01FCE02C
:10062000FB1100925E01FDE0FC1100925E01FEE014
:10063000FD1100925E01FFE0FE1100925E01F0E10B
:10064000FF1100925E01F1E1F01300925E01F2E110
:10065000F11300925E01F3E1F21300925E01F4E106
:10066000F31300925E01F5E1F41300925E01F6E1EE
:10067000F51300925E01F7E1F61300925E01F8E1D6
:10068000F71300925E01F9E1F81300925E01FAE1BE
:10069000F91300925E01FBE1FA1300925E01FCE1A6
:1006A000FB1300925E01FDE1FE1300925E015ECF3E
:1006B000EF92FF920F9384E192E065E171E045E5EE
:1006C00050E020E030E000E0EE24FF240E948109A9
:1006D00086EB92E06AE171E045E550E020E030E031
:1006E0000E9481090F91FF90EF9008958091610120
:1006F0008F5F8093610108950FB6F8940F92209157
:100700006401309165010F900FBEC90108952091D9
:10071000640130916501C901089580916A010895CD
:10072000009721F480915F01909160019C01275E08
:100730003F4FC901089580916101882321F081E034
:10074000809363010895109263012091620199E002
:1007500001C02150299FD0011124A059BE4F8C9176
:100760008823B9F31196ED91FC9112970280F381E1
:10077000E02D1296FC93EE931197CD010396E817A6
:10078000F90731F48281938112969C938E9311978D
:100790001196ED91FC91129786819781909360015B
:1007A00080935F01209362010895FC0180916801AC
:1007B0008083809164019091650192838183089583
:1007C000FC01DB010FB6F8940F9240916401509147
:1007D0006501909168018081981729F0818192814B
:1007E00048175907E0F4218132816D917C9111976E
:1007F000CA01821B930B8617970788F4241B350BBD
:10080000260F371F2D933C93809168018083809140
:100810006401909165019283818380E001C081E051
:100820000F900FBE089581E0809363010895E091D9
:100830005F01F091600184859585A0915F01B09181
:100840006001E0915F01F0916001468924E030E0B1
:10085000241B31091D963C932E931C9708950097F5
:1008600029F4E0915F01F091600101C0FC010FB635
:10087000F8940F9285A1823011F080E002C015A299
:1008800081E00F900FBE0895EF92FF920F931F9398
:10089000CF93DF937B01EC012DA182E08DA389A191
:1008A0009AA1ABA1BCA10196A11DB11D89A39AA3D8
:1008B000ABA3BCA3213091F5809161018823A9F4F9
:1008C0008E010E5F1F4FC8010E94130F9E898091F9
:1008D0006201891710F49093620189E0989FC0012A
:1008E000112480599E4FB80105C0BE01645F7F4F3F
:1008F0008AEA91E00E94C20EE0915F01F0916001EE
:100900009E898689891750F4E114F10421F081E071
:10091000F701808303C081E080936301DF91CF9171
:100920001F910F91FF90EF900895EF92FF920F9318
:100930001F93CF93DF93F801EC010115110541F0EE
:1009400089A19AA1ABA1BCA180839183A283B38327
:100950003DA182E08DA3223099F0233018F421309C
:1009600019F505C02330E1F02430F1F415C089A158
:100970009AA1ABA1BCA1842B952BA62BB72B07C0AA
:1009800089A19AA1ABA1BCA10196A11DB11D89A30A
:100990009AA3ABA3BCA308C0323011F480E03AC0E4
:1009A00049A35AA36BA37CA3313099F580916101CF
:1009B0008823A9F48E010E5F1F4FC8010E94130FF8
:1009C0009E8980916201891710F49093620189E0F9
:1009D000989FC001112480599E4FB80105C0BE01E7
:1009E000645F7F4F8AEA91E00E94C20EE0915F014E
:1009F000F09160019E898689891758F4E114F10409
:100A000021F081E0F701808305C081E080936301DC
:100A100001C081E0DF91CF911F910F91FF90EF9086
:100A200008950F931F93CF93DF93FC017068718338
:100A30006083C681D7810E94130F8E010E5F1F4F06
:100A4000C8010E94130F9E8980916201891710F4DA
:100A50009093620189E0989FC001112480599E4FB4
:100A6000B8010E94C20EE0915F01F09160019E8981
:100A70008689891710F080E003C081E080936301CC
:100A8000DF91CF911F910F9108950F931F93CF93F3
:100A9000DF93DC011596ED91FC911697C681D78105
:100AA0008E01045F1F4FC8010E94130F80916101E6
:100AB0008823A1F48E010E5F1F4FC8010E94130FFF
:100AC0009E8980916201891710F49093620189E0F8
:100AD000989FC001112480599E4F02C08AEA91E07C
:100AE000B8010E94C20EE0915F01F09160019E8901
:100AF0008689891710F080E003C081E0809363014C
:100B0000DF91CF911F910F910895CF92DF92EF92D5
:100B1000FF920F931F93CF93DF93809161018823FE
:100B200009F0A6C000916401109165010F5F1F4F8D
:100B300010936501009364010115110579F5209169
:100B4000A6013091A7018091A8019091A9019093ED
:100B5000A7018093A6013093A9012093A801809159
:100B600068018F5F80936801E091A601F091A70171
:100B70008081882319F48FEF9FEF0CC0E091A601CC
:100B8000F091A7010580F681E02D0680F781E02D28
:100B900082819381909367018093660180916601C1
:100BA000909167010817190708F44BC0DD2449E04C
:100BB000C42EE091A601F091A7018081882319F449
:100BC0008FEF9FEF0EC0E091A601F091A701058085
:100BD000F681E02DC681D7818A819B81081719078C
:100BE00028F490936701809366012CC032E0E32ED5
:100BF000F12CEC0EFD1EC7010E94130F8C899D89FC
:100C0000892B21F0CE010C960E94130F9E898091B2
:100C10006201891710F4909362019C9DC001112418
:100C200080599E4FB7010E94C20EE0915F01F09182
:100C300060019E898689981708F4BBCFDD24D39480
:100C4000B8CFDD24E0915F01F0916001868990E0EA
:100C5000FC0123E0EE0FFF1F2A95E1F7E80FF91FD3
:100C6000E059FE4F8081823048F0DD24D39406C0E5
:100C7000809169018F5F80936901DD248091630118
:100C8000882311F0DD24D3948D2DDF91CF911F9116
:100C90000F91FF90EF90DF90CF9008950F931F93E7
:100CA000CF93DF93F801EC010FB6F8940F92011582
:100CB000110541F089A19AA1ABA1BCA180839183C8
:100CC000A283B3833DA182E08DA3223099F023302B
:100CD00018F4213019F505C02330E1F02430F1F487
:100CE00015C089A19AA1ABA1BCA1842B952BA62BE1
:100CF000B72B07C089A19AA1ABA1BCA10196A11DE8
:100D0000B11D89A39AA3ABA3BCA308C0323011F4D0
:100D100080E027C049A35AA36BA37CA3313001F51F
:100D20008E010E5F1F4FC8010E94130F9E89809194
:100D30006201891710F49093620189E0989FC001C5
:100D4000112480599E4FB8010E94C20EE0915F01AC
:100D5000F09160019E898689891710F40E94211202
:100D600081E00F900FBEDF91CF911F910F910895F9
:100D7000EF92FF920F931F93CF93DF930FB6F894E8
:100D80000F92809161018150809361018091610196
:100D9000882309F06CC080916A01882309F467C038
:100DA000C0E0D0E059E0E52EFF24F39429C0E091A3
:100DB000AF01F091B001C681D781CE010C960E949F
:100DC000130F8E010E5F1F4FC8010E94130F9E89E3
:100DD00080916201891710F4909362019E9DC00179
:100DE000112480599E4FB8010E94C20EE0915F010C
:100DF000F09160019E898689981710F0F092630146
:100E00008091AA01882399F6CD2BD1F0E091A6011B
:100E1000F091A7018081882319F48FEF9FEF0CC018
:100E2000E091A601F091A7010580F681E02D0680F2
:100E3000F781E02D82819381909367018093660111
:100E400010916901112359F001E00E948505882362
:100E500011F0009363011150C1F710926901809164
:100E60006301882321F00E94211281E001C080E00B
:100E70000F900FBEDF91CF911F910F91FF90EF90D8
:100E800008950F931F93CF93DF93EC0100916401BA
:100E90001091650180915F019091600102960E941E
:100EA000130FC00FD11FE0915F01F0916001D38358
:100EB000C283C017D10768F48091A8019091A9015D
:100EC00060915F01709160016E5F7F4F0E94E10E43
:100ED00017C08091A6019091A70160915F01709168
:100EE00060016E5F7F4F0E94E10E809166019091DC
:100EF0006701C817D90720F4D0936701C093660132
:100F0000DF91CF911F910F9108956F927F928F92F1
:100F10009F92AF92BF92CF92DF92EF92FF920F9388
:100F20001F93CF93DF935B016C0139014A01E80104
:100F30000FB6F8940F92E0915F01F091600185A1E6
:100F4000823019F1E0915F01F091600181A192A1DD
:100F5000A3A1B4A1A094B094C094D0948A219B2161
:100F6000AC21BD2181A392A3A3A3B4A3E0915F010F
:100F7000F091600181E085A3E114F10431F0C70133
:100F800061E00E9441070E9421120F900FBE0FB630
:100F9000F8940F92209761F0E0915F01F091600169
:100FA00081A192A1A3A1B4A188839983AA83BB83C1
:100FB000E0915F01F091600185A1813011F480E042
:100FC00015C0E0915F01F091600181A192A1A3A100
:100FD000B4A1609470948094909486219721A82164
:100FE000B92181A392A3A3A3B4A381E0E0915F01FF
:100FF000F091600115A20F900FBEDF91CF911F916C
:101000000F91FF90EF90DF90CF90BF90AF909F90A7
:101010008F907F906F9008951F93182F0FB6F894BC
:101020000F92E0915F01F091600181A192A1A3A1D3
:10103000B4A10097A105B10579F4E0915F01F091A9
:10104000600181E085A36115710531F0CB0161E09C
:101050000E9441070E9421120F900FBE0FB6F89414
:101060000F92E0915F01F091600121A132A143A1B3
:1010700054A12115310541055105D9F0112349F03D
:10108000E0915F01F091600111A212A213A214A2DB
:1010900010C0E0915F01F09160012150304040406C
:1010A000504021A332A343A354A32F5F3F4F4F4F80
:1010B0005F4FE0915F01F091600115A20F900FBEAC
:1010C000B901CA011F9108950F931F938A01E091FE
:1010D0005F01F091600170687587648760915F01BE
:1010E00070916001645F7F4F0E94C20EC80161E091
:1010F0000E9441071F910F9108959C01009769F08C
:10110000809161018F5F80936101C90160E00E945D
:1011100041070E94B806882311F40E942112089505
:10112000FC01809161018F5F8093610140916401B6
:101130005091650120813181620F731F421753075F
:1011400028F46217730728F080E008C0621773075D
:1011500020F080E04617570708F481E07183608330
:10116000882331F0CB01841B950B60E00E9441077E
:101170000E94B806882311F40E94211208950F934B
:101180001F938B0160915F0170916001645F7F4FDD
:101190000E94E10EC80161E00E9441071F910F917A
:1011A0000895F89410926B010E94C01108950F9356
:1011B0001F932CC0809161018F5F8093610110911A
:1011C000B3010E94B806112309F10FB6F8940F92EB
:1011D000E091B801F091B90106811781C80102962A
:1011E0000E94130F80916A01815080936A0180915F
:1011F0006E01815080936E010F900FBEF8018789B8
:10120000908D0E94FC10C8010E94FC1080916E011C
:10121000882381F680917001823010F00E942112A3
:101220000E945300F3CF0F931F93CF93DF930FB61A
:10123000F8940F92009729F4C0915F01D09160015A
:1012400001C0EC018E010E5F1F4FC8010E94130FF9
:101250008C899D89892B21F0CE010C960E94130F59
:1012600080916F018F5F80936F0180915F019091FA
:101270006001C817D90759F483EB91E0B8010E94C7
:10128000C20E80916E018F5F80936E0126C08091A7
:101290006A01815080936A018F89988D0E94FC10A9
:1012A000CE010E94FC10E091A601F091A70180817F
:1012B000882319F48FEF9FEF0CC0E091A601F09105
:1012C000A7010580F681E02D0680F781E02D82815F
:1012D000938190936701809366010F900FBE809178
:1012E0006B01882349F080915F0190916001C817DC
:1012F000D90711F40E942112DF91CF911F910F9114
:1013000008954F925F926F927F928F929F92AF92C9
:10131000BF92CF92DF92EF92FF920F931F93CF93E2
:10132000DF932C01162F972E6A0139015701CA014C
:101330000E940C117C01009799F086E290E00E94D7
:101340000C11EC01009749F0F88EEF8A812F992D4E
:101350009C01F901DE0190E005C0C7010E94FC106C
:101360008FEFB7C0808159968C93599780818823DD
:1013700029F09F5F319611969830A1F718A204309A
:1013800008F003E00E8B72E0872E912C8C0E9D1ED0
:10139000C4010E94BE0ECE010C960E94BE0ED987DB
:1013A000C88784E090E0801B91099D878C87DB8B48
:1013B000CA8B19A21AA21BA21CA21DA20894C108C2
:1013C000D108C7018C0D9D1DB201A3010E943E11E1
:1013D00099838883A114B10419F0F501D183C083E6
:1013E0000FB6F8940F9280916A018F5F80936A0123
:1013F00080915F0190916001892BA9F5D0936001E4
:10140000C0935F0180916A018130E9F580E791E046
:101410000E94AE0E89E791E00E94AE0E82E891E054
:101420000E94AE0E8BE891E00E94AE0E64E9E62EBB
:1014300061E0F62EC7010E94AE0E0DE911E0C80171
:101440000E94AE0E8AEA91E00E94AE0E83EB91E01C
:101450000E94AE0EF092A701E092A6011093A9019E
:101460000093A80110C080916B01882361F4E09182
:101470005F01F091600196898E89891720F0D093E1
:101480006001C0935F0180916F018F5F80936F0156
:101490009E8980916201891710F49093620189E01E
:1014A000989FC001112480599E4FB4010E94C20E22
:1014B0000F900FBE80916B01882351F0E0915F0186
:1014C000F091600196898E89981710F40E9421127C
:1014D00081E0DF91CF911F910F91FF90EF90DF900E
:1014E000CF90BF90AF909F908F907F906F905F90C4
:1014F0004F900895EF92FF920F9387ED98E06FE180
:1015000071E045E550E020E030E000E0ECE6EE2E52
:10151000E1E0FE2E0E948109813081F4F8948FEF82
:101520009FEF909367018093660181E080936B0148
:1015300010926501109264010E9486110F91FF9034
:10154000EF9008950FB6F8940F92FC01828D0F90E2
:101550000FBE0895FC010FB6F8940F92928D0F9074
:101560000FBE838D891B0895FC01828D0895FC01B7
:10157000828D90E0882309F491E0892F0895FC0181
:10158000928D20E0838D981709F421E0822F089531
:101590000F931F93CF93DF93EC01042F1A8D4C8D83
:1015A0004423C1F10023B1F48C819D8150E00E945D
:1015B00089158C8D2C813D81280F311D3D832C8315
:1015C0008A819B812817390728F1888199819D8319
:1015D0008C8320C08E819F8150E00E9489158C8D64
:1015E00090E044275527481B590B8E819F81840F1B
:1015F000951F9F838E83288139818217930730F44A
:101600008A819B81840F951F9F838E83023011F402
:10161000111111501F5F1A8F80E0DF91CF911F9140
:101620000F910895FC01562FA72F248D2223B9F086
:1016300086819781820F911D9783868322813381D2
:101640008217930720F08081918197838683448D50
:1016500066817781852F9A2F50E00E948915089521
:101660000F931F93CF93DF93EC018A8D882341F072
:101670000E811F81CE010E94120B1F830E8381E019
:10168000DF91CF911F910F9108950F931F93CF93E7
:10169000DF93FB018A01EC018A8D882361F18C8D37
:1016A0002E813F81280F311D3F832E838A819B81AC
:1016B0002817390720F0888199819F838E838A8D2E
:1016C00081508A8F4C8D6E817F81CF0150E00E94C6
:1016D0008915F8018081882369F48885882351F071
:1016E000CE0108960E943D0F882321F081E0F80189
:1016F000808301C081E0DF91CF911F910F91089508
:101700001F93CF93DF93142FEC019A8D8B8D981735
:1017100088F4CE0140E00E94C80A112359F4898957
:10172000882341F0CE0141960E943D0F482F811140
:1017300041E0142F812FDF91CF911F910895CF9316
:10174000DF93FB01EC01F8948A8D882371F4411535
:10175000510541F06196CA01BE010E94451078947E
:101760008CEF2FC0789480E02CC07894F8948A8D08
:10177000882331F18C8D2E813F81280F311D3F83CD
:101780002E838A819B812817390720F088819981CF
:101790009F838E838A8D81508A8F4C8D6E817F814D
:1017A000CF0150E00E9489158885882341F0CE0141
:1017B00008960E943D0F882311F08BEF01C081E055
:1017C0007894DF91CF910895CF93DF93EC01F89453
:1017D0000FB6F8940F928A8D9B8D0F900FBE8917CC
:1017E00071F44115510541F02896CA01BE010E94CD
:1017F000451078948CEF1BC0789480E018C07894E2
:10180000F8948A8D891710F080E010C0CE0140E076
:101810000E94C80A8989882341F0CE0141960E941E
:101820003D0F882311F08BEF01C081E07894DF91A8
:10183000CF9108950E94FC100895EF92FF920F93AC
:101840001F93CF93DF937A01EC011A8D112311F4CA
:1018500080E01AC00D8D0E94120B11501A8F0F3F9D
:1018600081F48885882379F0CE0108960E94450589
:10187000882349F0E114F10431F081E0F70180831D
:1018800003C00F5F0D8F81E0DF91CF911F910F910A
:10189000FF90EF900895CF93DF93EB01FC01928DC1
:1018A000838D981710F080E016C0868D9F5F928F11
:1018B0008F3F71F48189882369F0CF0141960E949E
:1018C0004505882339F0209729F081E0888303C0FB
:1018D0008F5F868F81E0DF91CF910895EF92FF9225
:1018E0001F93CF93DF937A01EC019A8D8B8D98171C
:1018F00020F0223011F080E01AC01E8DCE01422F60
:101900000E94C80A1F3F81F48989882379F0CE019B
:1019100041960E944505882349F0E114F10431F015
:1019200081E0F701808303C01F5F1E8F81E0DF919C
:10193000CF911F91FF90EF900895EF92FF921F9328
:10194000CF93DF93EC010FB6F8940F921E8D91E1C7
:10195000E92EF12CEC0EFD1E0BC08989882351F075
:10196000C7010E944505882311F00E9413041150FD
:1019700011169CF38FEF8E8F0F900FBE0FB6F89459
:101980000F921D8D88E0E82EF12CEC0EFD1E0BC091
:101990008885882351F0C7010E944505882311F0EE
:1019A0000E941304115011169CF38FEF8D8F0F902E
:1019B0000FBEDF91CF911F91FF90EF9008956F922E
:1019C0007F928F929F92AF92BF92CF92DF92EF92CF
:1019D000FF920F931F93DF93CF9300D000D00F920D
:1019E000CDB7DEB74B015D834C83E22E8C0141E124
:1019F000A42EB12CA80EB91E20E06E010894C11CC3
:101A0000D11C34E0632E712C6C0E7D1E01C021E0D0
:101A10000FB6F8940F92F801F28CFF2011F1C680F6
:101A2000D780C801B4010E94120BEE2049F4FA9449
:101A3000F801F28E8085882381F0C801089607C0DE
:101A4000F801D782C6828189882339F0C5010E94B6
:101A50004505882311F00E9421120F900FBE81E0EE
:101A600054C08C819D81892B21F40F900FBE80E0A2
:101A70004CC0222319F4C6010E94D5030F900FBE5B
:101A80000E9476030FB6F8940F92F801858D8F3F70
:101A900009F4158EF801868D8F3F09F4168E0F908C
:101AA0000FBEC601B3010E94E0038823F9F40FB60C
:101AB000F8940F92F801828D0F900FBE882381F465
:101AC0006C817D81C5010E94BF08C8010E949D0CE8
:101AD0000E94B806882309F09ACF0E94211297CF5E
:101AE000C8010E949D0C0E94B80691CFC8010E94B7
:101AF0009D0C0E94B8060FB6F8940F92F801828DE3
:101B00000F900FBE882309F082CF0F900F900F9097
:101B10000F900F90CF91DF911F910F91FF90EF9059
:101B2000DF90CF90BF90AF909F908F907F906F90FD
:101B300008956F927F929F92AF92BF92CF92DF9261
:101B4000EF92FF920F931F93DF93CF9300D000D0BB
:101B50000F92CDB7DEB76B015D834C83922E8C0163
:101B600068E0E62EF12CE80EF91E20E05E010894F4
:101B7000A11CB11C54E0652E712C6C0E7D1E01C0A1
:101B800021E00FB6F8940F92F801928D838D98178B
:101B900018F0F2E09F16C9F4C801B601492D0E9461
:101BA000C80A982FF8018189882339F0C801419625
:101BB0000E944505882329F002C0992311F00E9454
:101BC00021120F900FBE81E04CC08C819D81892B2A
:101BD00019F40F900FBE44C0222319F4C5010E94CE
:101BE000D5030F900FBE0E9476030FB6F8940F92A4
:101BF000F801858D8F3F09F4158EF801868D8F3F92
:101C000009F4168E0F900FBEC501B3010E94E003C8
:101C1000882309F50FB6F8940F92F801928D0F9072
:101C20000FBEF801838D981781F46C817D81C70107
:101C30000E94BF08C8010E949D0C0E94B80688231C
:101C400009F09ECF0E9421129BCFC8010E949D0CDB
:101C50000E94B80695CFC8010E949D0C0E94B8064C
:101C600080E00F900F900F900F900F90CF91DF9129
:101C70001F910F91FF90EF90DF90CF90BF90AF90AA
:101C80009F907F906F900895CF93DF93EC010FB6F4
:101C9000F8940F92EC8D2B8DE29FC00111244881A6
:101CA0005981840F951F9B838A831A8E5D834C8391
:101CB00030E021503040F0E02E9FC0012F9F900D6A
:101CC0003E9F900D1124480F591F5F834E838FEF65
:101CD0008D8F8E8F662361F48885882389F0CE01ED
:101CE00008960E944505882359F00E94211208C0D9
:101CF000CE0108960E94AE0ECE0141960E94AE0E15
:101D00000F900FBE81E0DF91CF9108950F931F9345
:101D1000CF93DF93082F162F662319F480E090E00D
:101D200003C0689FC00111244F960E940C11EC0162
:101D3000009771F0112319F49983888303C04F969B
:101D4000998388830B8F1C8FCE0161E00E94440E23
:101D5000CE01DF91CF911F910F910895FC019C015D
:101D60002D5F3F4F328321838FEF9FEF94838383D7
:101D7000368325833087278310820895FC011186DE
:101D800010860895AC01FC01A181B281FB01B383EF
:101D9000A28314968D919C911597958384831496B4
:101DA000ED91FC9115977383628315967C936E93E6
:101DB0001497FB0151874087FA0180818F5F8083F0
:101DC0000895CF93DF939C01EB01488159818FEFF8
:101DD0004F3F580721F4F901A781B0850DC0D90103
:101DE00013961296ED91FC9113978081918148177B
:101DF000590710F0DF01F5CF1296ED91FC91139782
:101E0000FB83EA83D583C483BD83AC831396DC93C1
:101E1000CE93129739872887F90180818F5F80835D
:101E2000DF91CF910895CF93DF93DC011896CD9188
:101E3000DC91199712964D915C91139714968D91A0
:101E40009C911597FA019583848314962D913C916A
:101E50001597F9015383428389819A818A179B07D9
:101E600011F43A83298319961C921E92189788813F
:101E700081508883DF91CF910895EF92FF920F9365
:101E80001F93DC011596ED91FC911697E680F78083
:101E90008701045F1F4FC8010E94130F8DEE91E070
:101EA000B8010E94C20E20E0E091BC01F091BD019A
:101EB000D70156969C918689981708F021E0822FC9
:101EC0001F910F91FF90EF900895FF920F931F9332
:101ED000CF93DF9399E0F92E21C0F894E091F201BD
:101EE000F091F30106811781C8010C960E94130F2F
:101EF0007894E8012296CE010E94130FF80196898A
:101F00008091BE01891710F49093BE019F9DC0017E
:101F100011248B539E4FBE010E94C20E8091ED0191
:101F20008823D9F60E947C032091BF013091C00123
:101F3000821B930B9093C2018093C10189E0F82E1C
:101F400053C001969093C4018093C3012150304047
:101F50003093C2012093C101892B09F03EC020912A
:101F6000E9013091EA018091EB019091EC019093AD
:101F7000EA018093E9013093EC012093EB012DC03D
:101F80000580F681E02DC681D7812091C301309173
:101F9000C4018A819B812817390730F1F8948E019A
:101FA0000E5F1F4FC8010E94130F8C899D89892BDA
:101FB00021F0CE010C960E94130F78949E89809197
:101FC000BE01891710F49093BE019F9DC00111249A
:101FD0008B539E4FB8010E94C20EE091E901F0912F
:101FE000EA018081882361F62091C1013091C2010C
:101FF0008091C3019091C4012115310509F0A1CF51
:102000009093C0018093BF019091BE0129E006C06A
:10201000992319F41092BE0132C09150929FD001C1
:102020001124AB53BE4F8C91882391F39093BE0142
:102030001196ED91FC9112970280F381E02D12969A
:10204000FC93EE931197CD010396E817F90731F44D
:102050008281938112969C938E9311971196ED91A4
:10206000FC9112970680F781E02DF093BD01E0937B
:10207000BC0120813181CF016789F9010995DF9188
:10208000CF911F910F91FF9008950F931F93CF93BE
:10209000DF93EB010091C3011091C401080F191FD8
:1020A0008091BC019091BD0102960E94130FE091B6
:1020B000BC01F091BD01138302838091C301909113
:1020C000C401BF016E5F7F4F0817190728F4809184
:1020D000EB019091EC0104C08091E9019091EA013B
:1020E0000E94E10E209749F06091BC017091BD0102
:1020F000645F7F4FCE010E94E10EDF91CF911F916F
:102100000F910895AF92BF92CF92DF92EF92FF921C
:102110000F931F93CF93DF936C01B62EA42E8AE109
:1021200090E00E940C11EC01009711F48FEF59C060
:102130008091BC019091BD01892B21F5D093BD0107
:10214000C093BC0185EC91E00E94AE0E8EEC91E054
:102150000E94AE0E27EDE22E21E0F22EC7010E9472
:10216000AE0E00EE11E0C8010E94AE0E8DEE91E0C1
:102170000E94AE0EF092EA01E092E9011093EC01A8
:102180000093EB01EB2CBB2011F0EE24E394198EAD
:10219000188EEE8AAF8AFE01C192D1928F01CF01D3
:1021A0000E94BE0ECE010C960E94BE0ED987C88733
:1021B000DB8BCA8B82E090E08E1991099D878C871A
:1021C0009E898091BE01891710F49093BE0189E029
:1021D000989FC00111248B539E4FB8010E94C20EDC
:1021E00081E0DF91CF911F910F91FF90EF90DF90F1
:1021F000CF90BF90AF90089508951092F70110927C
:10220000F60108952BED35E08091F6019091F701EC
:10221000281B390BC9010895CF93DF93EC010E946D
:1022200076038091F8019091F901892B31F48BEFBD
:1022300091E09093F9018093F8012091F60130919B
:10224000F701CE01820F931F45E08B3D940770F498
:102250002817390758F4C091F801D091F901C20F3D
:10226000D31F9093F7018093F60102C0C0E0D0E045
:102270000E94B806CE01DF91CF910895FC0191E153
:10228000908322E2229383E3829362937293129269
:1022900080E88293129282E0829383E0829384E0CA
:1022A000829385E0829386E0829387E0829388E040
:1022B000829389E0829380E18293929382E1829378
:1022C00083E1829384E1829385E1829386E1829324
:1022D00087E1829388E1829389E1829380E282930D
:1022E00081E28293229383E282934293529386E225
:1022F000829387E2829388E2829389E2829380E3E9
:10230000829381E382933197CF01089510928900DF
:102310008CE7809388008BE080938100EFE6F0E00B
:10232000808182608083A0915F01B0916001CD9136
:10233000CDBFDD91DEBFFF91EF91DF91CF91BF91D6
:10234000AF919F918F917F916F915F914F913F914D
:102350002F911F910F91FF90EF90DF90CF90BF9042
:10236000AF909F908F907F906F905F904F903F9035
:102370002F901F900F900FBE0F90089581E0089549
:1023800008950F920FB6F8940F921F9211242F9276
:102390003F924F925F926F927F928F929F92AF92F5
:1023A000BF92CF92DF92EF92FF920F931F932F93E2
:1023B0003F934F935F936F937F938F939F93AF93CD
:1023C000BF93CF93DF93EF93FF93A0915F01B09101
:1023D00060010DB60D920EB60D920E948505882300
:1023E00011F00E949B03A0915F01B0916001CD911B
:1023F000CDBFDD91DEBFFF91EF91DF91CF91BF9116
:10240000AF919F918F917F916F915F914F913F918C
:102410002F911F910F91FF90EF90DF90CF90BF9081
:10242000AF909F908F907F906F905F904F903F9074
:102430002F901F900F900FBE0F9008950E94C11112
:1024400018950F920FB6F8940F921F9211242F92A5
:102450003F924F925F926F927F928F929F92AF9234
:10246000BF92CF92DF92EF92FF920F931F932F9321
:102470003F934F935F936F937F938F939F93AF930C
:10248000BF93CF93DF93EF93FF93A0915F01B09140
:1024900060010DB60D920EB60D920E949B03A091A5
:1024A0005F01B0916001CD91CDBFDD91DEBFFF91A5
:1024B000EF91DF91CF91BF91AF919F918F917F91DC
:1024C0006F915F914F913F912F911F910F91FF90CD
:1024D000EF90DF90CF90BF90AF909F908F907F90C4
:1024E0006F905F904F903F902F901F900F900FBE76
:1024F0000F9008958091240108950F931F93082F42
:10250000893008F008E081E061E040E00E94860E3A
:102510009093D7078093D607892B89F010E007C0E6
:1025200089EE92E160E0412F0E9482101F5F101738
:10253000B8F382EA92E161E040E00E9482101F91CC
:102540000F9108950F931F93DF93CF930F92CDB701
:10255000DEB78C01FC01808D918DF1E0823C9F07FC
:10256000B1F021E0833C920751F1892B61F5809114
:10257000D6079091D707BE016F5F7F4F4FEF5FEF98
:102580000E949F0B8C3F71F482EC91E00FC0809110
:10259000D6079091D707BE016F5F7F4F40E050E0B4
:1025A0000E949F0B8B3F31F483EC91E0F801918FF7
:1025B000808F09C0813019F010922401D8CF898111
:1025C0000E94C400D4CF0F90CF91DF911F910F9143
:1025D00008950F931F93DF93CF930F92CDB7DEB77C
:1025E00069838C01FC01808D918DF1E082389F0719
:1025F000F1F021E08338920718F4892B41F03EC0B6
:10260000E1E083389E0739F186599140B9F5809110
:10261000D6079091D707BE016F5F7F4F40E050E033
:102620000E94E40B8C3F71F482E891E024C0809119
:10263000D6079091D707BE016F5F7F4F40E050E013
:102640000E94E40B8B3F19F483E891E014C08130C1
:1026500011F010922401E981F0E0EE0FFF1FEB5D15
:10266000FE4F80819181009721F060E070E00E9430
:10267000451086E991E0F801918F808F0F90CF91FE
:10268000DF911F910F9108959F92AF92BF92CF92C9
:10269000DF92EF92FF920F931F93DF93CF9300D0BF
:1026A00000D0CDB7DEB78C01EE24FF249BE7A92E26
:1026B000B12CC12CD12C9924939403C081E0E82E35
:1026C000F12CA982BA82CB82DC8289819A81AB818A
:1026D000BC81895B9B46AC4FBF4F89839A83AB8398
:1026E000BC8369817A818B819C812DEF3FEF4FEF15
:1026F0005FEF0E94191569837A838B839C836981BC
:102700007A818B819C8127E030E040E050E00E949C
:102710006E15C901DA0189839A83AB83BC838981F1
:102720009A81AB81BC818B519747AE4FBF4F31F639
:10273000E114F10409F0C2CF0FB6F8940F92F8013A
:1027400090820F900FBEBDCF8091D8071092D8070E
:10275000811181E00895EF92FF920F93082F84E496
:1027600093E165E371E045E550E028ED37E0EE24C4
:10277000FF240E9481090F91FF90EF9008958091AE
:10278000D907882321F08091DA07811181E0109226
:10279000D9071092DA070895EF92FF920F931F93D3
:1027A000182F8AE062E040E00E94860E9093DC07DA
:1027B0008093DB07892BB9F084E394E16DE371E04A
:1027C00045E550E02BED37E0012FEE24FF240E9479
:1027D000810988EF93E165E471E045E550E02BED78
:1027E00037E00E9481091F910F91FF90EF900895AB
:1027F000CF92DF92EF92FF920F931F93DF93CF93CD
:1028000000D0CDB7DEB77C011A82198200E010E05B
:102810006E010894C11CD11C1FC0F70180819181F9
:10282000B60140E050E020E00E94990D813011F0A7
:1028300001E011C0002351F40FB6F8940F9280917B
:10284000DA078F5F8093DA070F900FBE89819A8134
:1028500001969A8389831F5F1330FCF283E090E036
:102860000E947D0810E0D9CF9F92AF92BF92CF9285
:10287000DF92EF92FF920F931F93DF93CF9300D0DD
:10288000CDB7DEB7982EC92EDD24EE24FF245E01DD
:102890000894A11CB11C23C0F80180819181B5016D
:1028A00040E050E020E00E94DF0C8130C1F429813B
:1028B0003A812E153F0519F0DD24D3940CC0DD209C
:1028C00051F40FB6F8940F928091D9078F5F8093DF
:1028D000D9070F900FBE79010894E11CF11C092D56
:1028E0001C2DF801808191810E94A20A8823A1F603
:1028F0008FEE9FEF0E947D08F2CF8091DD0710924E
:10290000DD07811181E00895EF92FF920F931F93ED
:10291000182F2093DE07CB01BA0148E10E94C401C1
:10292000012F015081EF94E16DE471E045E550E045
:1029300020E030E0EE24FF240E9481098EEA94E139
:1029400063E571E045E550E020E030E0012F0E94B2
:1029500081091F910F91FF90EF900895EF92FF92E0
:102960000F931F93DF93CF930F92CDB7DEB700E0A5
:102970007E010894E11CF11C11E480E090E0B701B5
:102980004FEF5FEF0E94BA01882351F089818117D0
:1029900011F011E009C08091DE078F5F0E94C40032
:1029A0001F5F193551F710E08091DE078F5F60E0FF
:1029B0000E94E700113069F407C080E090E0B701A1
:1029C0004FEF5FEF0E94BA0189818835B1F70F5F41
:1029D000D3CF02308CF68091DD078F5F8093DD07C7
:1029E000CBCF1F9311E40EC080E090E0612F40E058
:1029F00050E00E949C01813021F48091DE070E940A
:102A0000C4001F5F193584F38091DE0760E00E94E7
:102A1000E7000E947C03039666E970E00E94381587
:102A20008233910510F482E390E00E947D0811E466
:102A3000DBCF629FD001739FF001829FE00DF11DFB
:102A4000649FE00DF11D929FF00D839FF00D749F28
:102A5000F00D659FF00D9927729FB00DE11DF91FD4
:102A6000639FB00DE11DF91FBD01CF011124089531
:102A7000AA1BBB1B51E107C0AA1FBB1FA617B707A4
:102A800010F0A61BB70B881F991F5A95A9F78095C0
:102A90009095BC01CD010895A1E21A2EAA1BBB1B83
:102AA000FD010DC0AA1FBB1FEE1FFF1FA217B3071A
:102AB000E407F50720F0A21BB30BE40BF50B661F30
:102AC000771F881F991F1A9469F7609570958095F4
:102AD00090959B01AC01BD01CF01089597FB092E94
:102AE00005260ED057FD04D0D7DF0AD0001C38F4DD
:102AF00050954095309521953F4F4F4F5F4F08952A
:102B0000F6F790958095709561957F4F8F4F9F4F09
:102B10000895FB01DC0102C001900D92415050402C
:102B2000D8F70895DC01CB01FC01F999FECF06C06E
:102B3000F2BDE1BDF89A319600B40D92415050407B
:102B4000B8F70895262FF999FECF1FBA92BD81BD1F
:102B500020BD0FB6F894FA9AF99A0FBE019608951F
:042B6000F894FFCF17
:102B64005072696E740048656C6C6F20576F726C9C
:102B7400640D0A00FF5265673100526567320049EF
:102B8400444C4500019600C800FA002C015E0190F7
:102B940001C201F401496E744D6174680051436FC0
:102BA4006E734E42005150726F644E4200434F4D5B
:0A2BB400547800434F4D52780000A2
:00000001FF
