:100000000C9434000C9451000C9451000C94510049
:100010000C9451000C9451000C9451000C9451001C
:100020000C9451000C9451000C9451000C94C31288
:100030000C9451000C9451000C9451000C945100FC
:100040000C9451000C9451000C948F010C944D01B0
:100050000C9451000C9451000C9451000C945100DC
:100060000C9451000C94510011241FBECFEFD8E026
:10007000DEBFCDBF11E0A0E0B1E0E4E8F2E302C0F2
:1000800005900D92A436B107D9F718E0A4E6B1E0C7
:1000900001C01D92AD30B107E1F70E9456000C94EB
:1000A00040190C9400000E940A100895EF92FF92EC
:1000B0000F93DF93CF930F92CDB7DEB7CE010196AA
:1000C00060E570E041E050E00E944B1869816F5F8D
:1000D000698380E590E00E945B180E94F0008AEA44
:1000E00090E060E071E045E550E020E030E002E0C3
:1000F000EE24FF240E94260A83E00E9422130E941D
:100100001F0B80E090E00F90CF91DF910F91FF9057
:10011000EF900895EF92FF920F931F93CF93DF9389
:100120007C018B01C0E0D0E00BC0F701EC0FFD1F9C
:1001300080E090E0608140E050E00E94D001219694
:10014000C017D10790F3DF91CF911F910F91FF90CE
:10015000EF9008950F931F93CF93DF930E94400277
:1001600060E875E280E090E044E60E94F801C4E6B1
:10017000D1E008E011E084EF91E00E94220980E0E4
:100180000E947F02809384019093850100D000D06B
:1001900000D0EDB7FEB73196ADB7BEB71296DC937F
:1001A000CE9311971383028362E070E00E94F115F1
:1001B000758364830E944A16FE0101900020E9F7CE
:1001C0003197E456F1408DB79EB706960FB6F89476
:1001D0009EBF0FBE8DBFCE01BF010E948A00CBCF54
:1001E0008FEF80931E0184B980911E0185B9089517
:1001F0001F93282F8830E8F481E090E002C0880F38
:10020000991F2A95E2F7182F0E941B0480911E0166
:10021000812329F080911E011095182303C080913D
:100220001E01182B10931E0180911E0185B90E949A
:100230005D071F9108950F931F93282F062F883075
:10024000D8F481E090E002C0880F991F2A95E2F768
:10025000182F0E941B04013029F480911E01109573
:10026000182303C080911E01182B10931E0180914A
:100270001E0185B90E945D071F910F9108950FB669
:10028000F8940F92E1ECF0E080818F7D8083808193
:100290008F7780830F900FBE08951F920F920FB635
:1002A0000F9211242F933F934F935F936F937F93FC
:1002B0008F939F93AF93BF93EF93FF93DF93CF936E
:1002C00000D0CDB7DEB78091880190918901BE0141
:1002D0006F5F7F4FAE014E5F5F4F0E94C20C813057
:1002E00021F489818093C60005C08091C1008F7D73
:1002F0008093C1000F900F90CF91DF91FF91EF910C
:10030000BF91AF919F918F917F916F915F914F912D
:100310003F912F910F900FBE0F901F9018951F9235
:100320000F920FB60F9211242F933F934F935F9329
:100330006F937F938F939F93AF93BF93EF93FF93AD
:10034000DF93CF9300D0CDB7DEB71A828091C6007D
:1003500089838091860190918701BE016F5F7F4FF5
:10036000AE014E5F5F4F20E00E94130D8A8188230B
:1003700011F00E94C6120F900F90CF91DF91FF9164
:10038000EF91BF91AF919F918F917F916F915F910D
:100390004F913F912F910F900FBE0F901F90189586
:1003A000DF93CF930F92CDB7DEB769838091880139
:1003B00090918901BE016F5F7F4F20E00E943E0E49
:1003C000813011F080E006C08091C100806280938E
:1003D000C10081E00F90CF91DF9108958091860157
:1003E0009091870120E00E94840D811181E00895A1
:1003F000DF92EF92FF920F931F937B018C01D42E1B
:100400000FB6F8940F92842F61E040E00E942B0F0A
:1004100090938701809386018D2D61E040E00E94DA
:100420002B0F909389018093880194E0EE0CFF1CC0
:10043000001F111F9A95D1F760E072E18AE790E002
:10044000A80197010E9404162150304040405040BE
:100450002093C400232F342F452F55272093C50008
:1004600088E98093C10086E08093C2000F900FBEA0
:1004700080E090E01F910F91FF90EF90DF90089542
:10048000E4E6F0E080818E7F808310927C0081E83A
:1004900080937A0010927B0010927E0080E0089595
:1004A000EAE7F0E08081806880830895EAE7F0E081
:1004B00080818F7780830895ECE7F0E09081907FD2
:1004C00090839081982B9083EAE7F0E080818064AC
:1004D0008083089580917A0090E024E09695879536
:1004E0002A95E1F781700895209178004091790074
:1004F000942F80E030E0282B392BC901089590918A
:100500007C00907F90937C0090917C00982B90933E
:100510007C0080917A00806480937A0080917A00D8
:1005200084FFFCCF209178004091790080917A007F
:10053000806180937A00942F80E030E0282B392B63
:10054000C90108958AE0089590938B0180938A01F0
:100550000895E0918A01F0918B01309709F0099597
:10056000089590E080918C01882309F491E0892F0F
:100570000895F5E00F2EF6E01F2EF7E02F2EF8E09D
:100580003F2EF9E04F2EFAE05F2EFBE06F2EFCE0ED
:100590007F2EFDE08F2EFEE09F2EFFE0AF2EF0E1DC
:1005A000BF2EF1E1CF2EF2E1DF2EF3E1EF2EF4E1E9
:1005B000FF2E05E116E127E138E149E15AE16BE15F
:1005C0007CE18DE19EE1AFE1B0E2E1E2F5E0F01126
:1005D00000928C01F6E0F11100928C01F7E0F2112B
:1005E00000928C01F8E0F31100928C01F9E0F41113
:1005F00000928C01FAE0F51100928C01FBE0F611FB
:1006000000928C01FCE0F71100928C01FDE0F811E2
:1006100000928C01FEE0F91100928C01FFE0FA11CA
:1006200000928C01F0E1FB1100928C01F1E1FC11D0
:1006300000928C01F2E1FD1100928C01F3E1FE11B8
:1006400000928C01F4E1FF1100928C01F5E1F013AE
:1006500000928C01F6E1F11300928C01F7E1F213A4
:1006600000928C01F8E1F31300928C01F9E1F4138C
:1006700000928C01FAE1F51300928C01FBE1F61374
:1006800000928C01FCE1F71300928C01FDE1F8135C
:1006900000928C01FEE1F91300928C01FFE1FA1344
:1006A00000928C01F0E2FB1300928C01F1E2FE1348
:1006B00000928C015ECFF1E00F2EF2E01F2EF3E0EE
:1006C0002F2EF4E03F2EF5E04F2EF6E05F2EF7E000
:1006D0006F2EF8E07F2EF9E08F2EFAE09F2EFBE0E0
:1006E000AF2EFCE0BF2EFDE0CF2EFEE0DF2EFFE0C0
:1006F000EF2EF0E1FF2E01E112E123E134E145E1CB
:1007000056E167E178E189E19AE1ABE1BCE1EDE135
:10071000F1E0F01100928C01F2E0F11100928C01F5
:10072000F3E0F21100928C01F4E0F31100928C01DD
:10073000F5E0F41100928C01F6E0F51100928C01C5
:10074000F7E0F61100928C01F8E0F71100928C01AD
:10075000F9E0F81100928C01FAE0F91100928C0195
:10076000FBE0FA1100928C01FCE0FB1100928C017D
:10077000FDE0FC1100928C01FEE0FD1100928C0165
:10078000FFE0FE1100928C01F0E1FF1100928C015C
:10079000F1E1F01300928C01F2E1F11300928C016F
:1007A000F3E1F21300928C01F4E1F31300928C0157
:1007B000F5E1F41300928C01F6E1F51300928C013F
:1007C000F7E1F61300928C01F8E1F71300928C0127
:1007D000F9E1F81300928C01FAE1F91300928C010F
:1007E000FBE1FA1300928C01FCE1FB1300928C01F7
:1007F000FDE1FE1300928C015ECFEF92FF920F930A
:1008000089EB92E06FE171E045E550E020E030E0F7
:1008100000E0EE24FF240E94260A8BE593E064E2C8
:1008200071E045E550E020E030E00E94260A0F919B
:10083000FF90EF90089580918F018F5F80938F01DB
:1008400008950FB6F8940F92209192013091930180
:100850000F900FBEC901089520919201309193012C
:10086000C9010895809198010895009721F480911D
:100870008D0190918E019C01275E3F4FC901089523
:1008800080918F01882321F081E080939101089568
:10089000109291012091900199E001C02150299F6F
:1008A000D0011124A256BE4F8C918823B9F3119622
:1008B000ED91FC9112970280F381E02D1296FC934A
:1008C000EE931197CD010396E817F90731F4828171
:1008D000938112969C938E9311971196ED91FC91B2
:1008E00012978681978190938E0180938D0120933A
:1008F00090010895FC01809196018083809192017E
:1009000090919301928381830895FC01DB010FB6DE
:10091000F8940F9240919201509193019091960119
:100920008081981729F08181928148175907E0F456
:10093000218132816D917C911197CA01821B930BA9
:100940008617970788F4241B350B260F371F2D9326
:100950003C938091960180838091920190919301C4
:100960009283818380E001C081E00F900FBE0895E3
:1009700081E0809391010895E0918D01F0918E01C5
:1009800084859585A0918D01B0918E01E0918D01B6
:10099000F0918E01468924E030E0241B31091D9638
:1009A0003C932E931C970895009729F4E0918D01B4
:1009B000F0918E0101C0FC010FB6F8940F9285A151
:1009C000823011F080E002C015A281E00F900FBECE
:1009D0000895EF92FF920F931F93CF93DF937B01C4
:1009E000EC012DA182E08DA389A19AA1ABA1BCA1AC
:1009F0000196A11DB11D89A39AA3ABA3BCA321306D
:100A000091F580918F018823A9F48E010E5F1F4F0D
:100A1000C8010E94B80F9E8980919001891710F437
:100A20009093900189E0989FC001112482569E4FB7
:100A3000B80105C0BE01645F7F4F88ED91E00E9460
:100A4000670FE0918D01F0918E019E89868989174B
:100A500050F4E114F10421F081E0F701808303C038
:100A600081E080939101DF91CF911F910F91FF90D1
:100A7000EF900895EF92FF920F931F93CF93DF9320
:100A8000F801EC010115110541F089A19AA1ABA172
:100A9000BCA180839183A283B3833DA182E08DA317
:100AA000223099F0233018F4213019F505C0233095
:100AB000E1F02430F1F415C089A19AA1ABA1BCA149
:100AC000842B952BA62BB72B07C089A19AA1ABA18C
:100AD000BCA10196A11DB11D89A39AA3ABA3BCA380
:100AE00008C0323011F480E03AC049A35AA36BA386
:100AF0007CA3313099F580918F018823A9F48E0170
:100B00000E5F1F4FC8010E94B80F9E89809190010F
:100B1000891710F49093900189E0989FC0011124E7
:100B200082569E4FB80105C0BE01645F7F4F88EDBD
:100B300091E00E94670FE0918D01F0918E019E89F6
:100B40008689891758F4E114F10421F081E0F70156
:100B5000808305C081E08093910101C081E0DF9135
:100B6000CF911F910F91FF90EF9008950F931F93D6
:100B7000CF93DF93FC01706871836083C681D78156
:100B80000E94B80F8E010E5F1F4FC8010E94B80F60
:100B90009E8980919001891710F49093900189E0CB
:100BA000989FC001112482569E4FB8010E94670F82
:100BB000E0918D01F0918E019E898689891710F050
:100BC00080E003C081E080939101DF91CF911F917C
:100BD0000F9108950F931F93CF93DF93DC01159628
:100BE000ED91FC911697C681D7818E01045F1F4F4E
:100BF000C8010E94B80F80918F018823A1F48E0153
:100C00000E5F1F4FC8010E94B80F9E89809190010E
:100C1000891710F49093900189E0989FC0011124E6
:100C200082569E4F02C088ED91E0B8010E94670F86
:100C3000E0918D01F0918E019E898689891710F0CF
:100C400080E003C081E080939101DF91CF911F91FB
:100C50000F910895CF92DF92EF92FF920F931F931F
:100C6000CF93DF9380918F01882309F0A6C0009174
:100C70009201109193010F5F1F4F10939301009306
:100C800092010115110579F52091D4013091D5011A
:100C90008091D6019091D7019093D5018093D40192
:100CA0003093D7012093D601809196018F5F809376
:100CB0009601E091D401F091D5018081882319F447
:100CC0008FEF9FEF0CC0E091D401F091D50105802A
:100CD000F681E02D0680F781E02D8281938190934B
:100CE000950180939401809194019091950108174A
:100CF000190708F44BC0DD2449E0C42EE091D4016B
:100D0000F091D5018081882319F48FEF9FEF0EC0F9
:100D1000E091D401F091D5010580F681E02DC681E6
:100D2000D7818A819B810817190728F49093950130
:100D3000809394012CC032E0E32EF12CEC0EFD1ECA
:100D4000C7010E94B80F8C899D89892B21F0CE01A3
:100D50000C960E94B80F9E8980919001891710F41B
:100D6000909390019C9DC001112482569E4FB70123
:100D70000E94670FE0918D01F0918E019E89868916
:100D8000981708F4BBCFDD24D394B8CFDD24E091CD
:100D90008D01F0918E01868990E0FC0123E0EE0F39
:100DA000FF1F2A95E1F7E80FF91FE256FE4F8081F9
:100DB000823048F0DD24D39406C0809197018F5F84
:100DC00080939701DD2480919101882311F0DD2427
:100DD000D3948D2DDF91CF911F910F91FF90EF90C4
:100DE000DF90CF9008950F931F93CF93DF93F80177
:100DF000EC010FB6F8940F920115110541F089A18D
:100E00009AA1ABA1BCA180839183A283B3833DA1AE
:100E100082E08DA3223099F0233018F4213019F5A7
:100E200005C02330E1F02430F1F415C089A19AA166
:100E3000ABA1BCA1842B952BA62BB72B07C089A1F6
:100E40009AA1ABA1BCA10196A11DB11D89A39AA332
:100E5000ABA3BCA308C0323011F480E027C049A383
:100E60005AA36BA37CA3313001F58E010E5F1F4F97
:100E7000C8010E94B80F9E8980919001891710F4D3
:100E80009093900189E0989FC001112482569E4F53
:100E9000B8010E94670FE0918D01F0918E019E894B
:100EA0008689891710F40E94C61281E00F900FBE48
:100EB000DF91CF911F910F910895EF92FF920F93C1
:100EC0001F93CF93DF930FB6F8940F9280918F0109
:100ED000815080938F0180918F01882309F06CC02D
:100EE00080919801882309F467C0C0E0D0E059E000
:100EF000E52EFF24F39429C0E091DD01F091DE019D
:100F0000C681D781CE010C960E94B80F8E010E5F6C
:100F10001F4FC8010E94B80F9E89809190018917C8
:100F200010F4909390019E9DC001112482569E4F13
:100F3000B8010E94670FE0918D01F0918E019E89AA
:100F40008689981710F0F09291018091D80188233A
:100F500099F6CD2BD1F0E091D401F091D5018081AB
:100F6000882319F48FEF9FEF0CC0E091D401F0912A
:100F7000D5010580F681E02D0680F781E02D828184
:100F8000938190939501809394011091970111237F
:100F900059F001E00E942A06882311F00093910184
:100FA0001150C1F71092970180919101882321F08F
:100FB0000E94C61281E001C080E00F900FBEDF9159
:100FC000CF911F910F91FF90EF9008950F931F9372
:100FD000CF93DF93EC0100919201109193018091E6
:100FE0008D0190918E0102960E94B80FC00FD11F03
:100FF000E0918D01F0918E01D383C283C017D10798
:1010000068F48091D6019091D70160918D01709123
:101010008E016E5F7F4F0E94860F17C08091D401B2
:101020009091D50160918D0170918E016E5F7F4F1F
:101030000E94860F8091940190919501C817D9075D
:1010400020F4D0939501C0939401DF91CF911F912B
:101050000F9108956F927F928F929F92AF92BF925D
:10106000CF92DF92EF92FF920F931F93CF93DF9374
:101070005B016C0139014A01E8010FB6F8940F9247
:10108000E0918D01F0918E0185A1823019F1E091FE
:101090008D01F0918E0181A192A1A3A1B4A1A09490
:1010A000B094C094D0948A219B21AC21BD2181A30E
:1010B00092A3A3A3B4A3E0918D01F0918E0181E0EE
:1010C00085A3E114F10431F0C70161E00E94E60755
:1010D0000E94C6120F900FBE0FB6F8940F92209781
:1010E00061F0E0918D01F0918E0181A192A1A3A107
:1010F000B4A188839983AA83BB83E0918D01F09189
:101100008E0185A1813011F480E015C0E0918D0140
:10111000F0918E0181A192A1A3A1B4A160947094D9
:101120008094909486219721A821B92181A392A32C
:10113000A3A3B4A381E0E0918D01F0918E0115A2EB
:101140000F900FBEDF91CF911F910F91FF90EF9005
:10115000DF90CF90BF90AF909F908F907F906F90D7
:1011600008951F93182F0FB6F8940F92E0918D01F8
:10117000F0918E0181A192A1A3A1B4A10097A10534
:10118000B10579F4E0918D01F0918E0181E085A3A4
:101190006115710531F0CB0161E00E94E6070E9404
:1011A000C6120F900FBE0FB6F8940F92E0918D010A
:1011B000F0918E0121A132A143A154A12115310545
:1011C00041055105D9F0112349F0E0918D01F091CD
:1011D0008E0111A212A213A214A210C0E0918D01DF
:1011E000F0918E01215030404040504021A332A365
:1011F00043A354A32F5F3F4F4F4F5F4FE0918D01AB
:10120000F0918E0115A20F900FBEB901CA011F9176
:1012100008950F931F938A01E0918D01F0918E0143
:1012200070687587648760918D0170918E01645F2D
:101230007F4F0E94670FC80161E00E94E6071F917F
:101240000F9108959C01009769F080918F018F5F45
:1012500080938F01C90160E00E94E6070E945D074C
:10126000882311F40E94C6120895FC0180918F0119
:101270008F5F80938F014091920150919301208163
:101280003181620F731F4217530728F462177307E7
:1012900028F080E008C06217730720F080E046174E
:1012A000570708F481E071836083882331F0CB0114
:1012B000841B950B60E00E94E6070E945D0788236F
:1012C00011F40E94C61208950F931F938B01609131
:1012D0008D0170918E01645F7F4F0E94860FC8015F
:1012E00061E00E94E6071F910F910895F894109213
:1012F00099010E94651208950F931F932CC080914D
:101300008F018F5F80938F011091E1010E945D0733
:10131000112309F10FB6F8940F92E091E601F091D4
:10132000E70106811781C80102960E94B80F8091DB
:10133000980181508093980180919C018150809305
:101340009C010F900FBEF8018789908D0E94A1111A
:10135000C8010E94A11180919C01882381F680918F
:101360009E01823010F00E94C6120E945300F3CFFB
:101370000F931F93CF93DF930FB6F8940F920097BC
:1013800029F4C0918D01D0918E0101C0EC018E0134
:101390000E5F1F4FC8010E94B80F8C899D89892B51
:1013A00021F0CE010C960E94B80F80919D018F5FB5
:1013B00080939D0180918D0190918E01C817D9076E
:1013C00059F481EE91E0B8010E94670F80919C0171
:1013D0008F5F80939C0126C08091980181508093FB
:1013E00098018F89988D0E94A111CE010E94A111B0
:1013F000E091D401F091D5018081882319F48FEF19
:101400009FEF0CC0E091D401F091D5010580F681E9
:10141000E02D0680F781E02D8281938190939501E4
:10142000809394010F900FBE80919901882349F019
:1014300080918D0190918E01C817D90711F40E94F7
:10144000C612DF91CF911F910F9108954F925F9235
:101450006F927F928F929F92AF92BF92CF92DF92C4
:10146000EF92FF920F931F93CF93DF932C01162FD0
:10147000972E6A0139015701CA010E94B1117C01FE
:10148000009799F086E290E00E94B111EC0100977C
:1014900049F0F88EEF8A812F992D9C01F901DE0128
:1014A00090E005C0C7010E94A1118FEFB7C08081F5
:1014B00059968C9359978081882329F09F5F3196A4
:1014C00011969830A1F718A2043008F003E00E8BB3
:1014D00072E0872E912C8C0E9D1EC4010E94630F1A
:1014E000CE010C960E94630FD987C88784E090E0F4
:1014F000801B91099D878C87DB8BCA8B19A21AA24E
:101500001BA21CA21DA20894C108D108C7018C0D02
:101510009D1DB201A3010E94E31199838883A11448
:10152000B10419F0F501D183C0830FB6F8940F927E
:10153000809198018F5F8093980180918D019091A7
:101540008E01892BA9F5D0938E01C0938D018091D6
:1015500098018130E9F58EE991E00E94530F87EA06
:1015600091E00E94530F80EB91E00E94530F89EBB2
:1015700091E00E94530F62ECE62E61E0F62EC70167
:101580000E94530F0BEC11E0C8010E94530F88ED2D
:1015900091E00E94530F81EE91E00E94530FF09270
:1015A000D501E092D4011093D7010093D60110C069
:1015B00080919901882361F4E0918D01F0918E0171
:1015C00096898E89891720F0D0938E01C0938D0162
:1015D00080919D018F5F80939D019E8980919001F4
:1015E000891710F49093900189E0989FC00111240D
:1015F00082569E4FB4010E94670F0F900FBE8091DC
:101600009901882351F0E0918D01F0918E01968926
:101610008E89981710F40E94C61281E0DF91CF9155
:101620001F910F91FF90EF90DF90CF90BF90AF9000
:101630009F908F907F906F905F904F900895EF9262
:10164000FF920F938CE799E069E271E045E550E085
:1016500020E030E000E0EAE9EE2EE1E0FE2E0E941C
:10166000260A813081F4F8948FEF9FEF90939501D3
:101670008093940181E080939901109293011092DC
:1016800092010E942B120F91FF90EF9008950FB6D8
:10169000F8940F92FC01828D0F900FBE0895FC010B
:1016A0000FB6F8940F92928D0F900FBE838D891B09
:1016B0000895FC01828D0895FC01828D90E08823BD
:1016C00009F491E0892F0895FC01928D20E0838D2B
:1016D000981709F421E0822F08950F931F93CF9359
:1016E000DF93EC01042F1A8D4C8D4423C1F10023AC
:1016F000B1F48C819D8150E00E9441168C8D2C812B
:101700003D81280F311D3D832C838A819B812817C1
:10171000390728F1888199819D838C8320C08E812F
:101720009F8150E00E9441168C8D90E04427552700
:10173000481B590B8E819F81840F951F9F838E8339
:10174000288139818217930730F48A819B81840F25
:10175000951F9F838E83023011F4111111501F5F6A
:101760001A8F80E0DF91CF911F910F910895FC01B6
:10177000562FA72F248D2223B9F086819781820FBF
:10178000911D97838683228133818217930720F0EE
:101790008081918197838683448D66817781852FAF
:1017A0009A2F50E00E94411608950F931F93CF93F4
:1017B000DF93EC018A8D882341F00E811F81CE01D9
:1017C0000E94B70B1F830E8381E0DF91CF911F91A1
:1017D0000F9108950F931F93CF93DF93FB018A011D
:1017E000EC018A8D882361F18C8D2E813F81280F39
:1017F000311D3F832E838A819B812817390720F072
:10180000888199819F838E838A8D81508A8F4C8DA8
:101810006E817F81CF0150E00E944116F8018081E6
:10182000882369F48885882351F0CE0108960E94A8
:10183000E20F882321F081E0F801808301C081E07C
:10184000DF91CF911F910F9108951F93CF93DF9355
:10185000142FEC019A8D8B8D981788F4CE0140E0FF
:101860000E946D0B112359F48989882341F0CE0120
:1018700041960E94E20F482F811141E0142F812FE1
:10188000DF91CF911F910895CF93DF93FB01EC017E
:10189000F8948A8D882371F44115510541F06196C1
:1018A000CA01BE010E94EA1078948CEF2FC0789490
:1018B00080E02CC07894F8948A8D882331F18C8D47
:1018C0002E813F81280F311D3F832E838A819B818A
:1018D0002817390720F0888199819F838E838A8D0C
:1018E00081508A8F4C8D6E817F81CF0150E00E94A4
:1018F00041168885882341F0CE0108960E94E20FA8
:10190000882311F08BEF01C081E07894DF91CF91B3
:101910000895CF93DF93EC01F8940FB6F8940F92EB
:101920008A8D9B8D0F900FBE891771F4411551055B
:1019300041F02896CA01BE010E94EA1078948CEF0B
:101940001BC0789480E018C07894F8948A8D891729
:1019500010F080E010C0CE0140E00E946D0B89893C
:10196000882341F0CE0141960E94E20F882311F0B6
:101970008BEF01C081E07894DF91CF9108950E94B0
:10198000A1110895EF92FF920F931F93CF93DF93CE
:101990007A01EC011A8D112311F480E01AC00D8D2B
:1019A0000E94B70B11501A8F0F3F81F4888588234E
:1019B00079F0CE0108960E94EA05882349F0E114E7
:1019C000F10431F081E0F701808303C00F5F0D8FD8
:1019D00081E0DF91CF911F910F91FF90EF900895DB
:1019E000CF93DF93EB01FC01928D838D981710F05C
:1019F00080E016C0868D9F5F928F8F3F71F4818942
:101A0000882369F0CF0141960E94EA05882339F0C6
:101A1000209729F081E0888303C08F5F868F81E063
:101A2000DF91CF910895EF92FF921F93CF93DF93B1
:101A30007A01EC019A8D8B8D981720F0223011F0ED
:101A400080E01AC01E8DCE01422F0E946D0B1F3FF9
:101A500081F48989882379F0CE0141960E94EA05B4
:101A6000882349F0E114F10431F081E0F70180832B
:101A700003C01F5F1E8F81E0DF91CF911F91FF9008
:101A8000EF900895EF92FF921F93CF93DF93EC01B5
:101A90000FB6F8940F921E8D91E1E92EF12CEC0E09
:101AA000FD1E0BC08989882351F0C7010E94EA05F9
:101AB000882311F00E94B804115011169CF38FEF87
:101AC0008E8F0F900FBE0FB6F8940F921D8D88E089
:101AD000E82EF12CEC0EFD1E0BC08885882351F0FA
:101AE000C7010E94EA05882311F00E94B804115032
:101AF00011169CF38FEF8D8F0F900FBEDF91CF915A
:101B00001F91FF90EF9008956F927F928F929F9216
:101B1000AF92BF92CF92DF92EF92FF920F931F93FB
:101B2000DF93CF9300D000D00F92CDB7DEB74B013B
:101B30005D834C83E22E8C0141E1A42EB12CA80ED2
:101B4000B91E20E06E010894C11CD11C34E0632E44
:101B5000712C6C0E7D1E01C021E00FB6F8940F921F
:101B6000F801F28CFF2011F1C680D780C801B401C2
:101B70000E94B70BEE2049F4FA94F801F28E8085AA
:101B8000882381F0C801089607C0F801D782C68271
:101B90008189882339F0C5010E94EA05882311F064
:101BA0000E94C6120F900FBE81E054C08C819D81AF
:101BB000892B21F40F900FBE80E04CC0222319F432
:101BC000C6010E947A040F900FBE0E941B040FB63C
:101BD000F8940F92F801858D8F3F09F4158EF80166
:101BE000868D8F3F09F4168E0F900FBEC601B3018C
:101BF0000E9485048823F9F40FB6F8940F92F80137
:101C0000828D0F900FBE882381F46C817D81C50188
:101C10000E946409C8010E94420D0E945D0788234A
:101C200009F09ACF0E94C61297CFC8010E94420DB8
:101C30000E945D0791CFC8010E94420D0E945D077E
:101C40000FB6F8940F92F801828D0F900FBE882383
:101C500009F082CF0F900F900F900F900F90CF91BF
:101C6000DF911F910F91FF90EF90DF90CF90BF9089
:101C7000AF909F908F907F906F9008956F927F921A
:101C80009F92AF92BF92CF92DF92EF92FF920F930B
:101C90001F93DF93CF9300D000D00F92CDB7DEB764
:101CA0006B015D834C83922E8C0168E0E62EF12C53
:101CB000E80EF91E20E05E010894A11CB11C54E05E
:101CC000652E712C6C0E7D1E01C021E00FB6F894BC
:101CD0000F92F801928D838D981718F0F2E09F16FD
:101CE000C9F4C801B601492D0E946D0B982FF80167
:101CF0008189882339F0C80141960E94EA0588232A
:101D000029F002C0992311F00E94C6120F900FBE55
:101D100081E04CC08C819D81892B19F40F900FBEFE
:101D200044C0222319F4C5010E947A040F900FBE0B
:101D30000E941B040FB6F8940F92F801858D8F3F17
:101D400009F4158EF801868D8F3F09F4168E0F90D9
:101D50000FBEC501B3010E948504882309F50FB6A3
:101D6000F8940F92F801928D0F900FBEF801838DB9
:101D7000981781F46C817D81C7010E946409C801B4
:101D80000E94420D0E945D07882309F09ECF0E94A9
:101D9000C6129BCFC8010E94420D0E945D0795CFDD
:101DA000C8010E94420D0E945D0780E00F900F90D5
:101DB0000F900F900F90CF91DF911F910F91FF9097
:101DC000EF90DF90CF90BF90AF909F907F906F90FB
:101DD0000895CF93DF93EC010FB6F8940F92EC8D3A
:101DE0002B8DE29FC001112448815981840F951FDA
:101DF0009B838A831A8E5D834C8330E02150304070
:101E0000F0E02E9FC0012F9F900D3E9F900D11245A
:101E1000480F591F5F834E838FEF8D8F8E8F662300
:101E200061F48885882389F0CE0108960E94EA052E
:101E3000882359F00E94C61208C0CE0108960E945D
:101E4000530FCE0141960E94530F0F900FBE81E0B9
:101E5000DF91CF9108950F931F93CF93DF93082FB6
:101E6000162F662319F480E090E003C0689FC0013C
:101E700011244F960E94B111EC01009771F01123CB
:101E800019F49983888303C04F96998388830B8FB5
:101E90001C8FCE0161E00E94E90ECE01DF91CF914F
:101EA0001F910F910895FC019C012D5F3F4F3283DC
:101EB00021838FEF9FEF948383833683258330873D
:101EC000278310820895FC01118610860895AC01C5
:101ED000FC01A181B281FB01B383A28314968D9191
:101EE0009C911597958384831496ED91FC91159799
:101EF0007383628315967C936E931497FB015187CD
:101F00004087FA0180818F5F80830895CF93DF93AC
:101F10009C01EB01488159818FEF4F3F580721F415
:101F2000F901A781B0850DC0D90113961296ED91E4
:101F3000FC911397808191814817590710F0DF01B8
:101F4000F5CF1296ED91FC911397FB83EA83D5832D
:101F5000C483BD83AC831396DC93CE9312973987E9
:101F60002887F90180818F5F8083DF91CF91089569
:101F7000CF93DF93DC011896CD91DC9119971296DF
:101F80004D915C91139714968D919C911597FA0140
:101F90009583848314962D913C911597F901538371
:101FA000428389819A818A179B0711F43A83298396
:101FB00019961C921E921897888181508883DF9110
:101FC000CF910895EF92FF920F931F93DC01159626
:101FD000ED91FC911697E680F7808701045F1F4F13
:101FE000C8010E94B80F8BE192E0B8010E94670F10
:101FF00020E0E091EA01F091EB01D70156969C9127
:102000008689981708F021E0822F1F910F91FF9089
:10201000EF900895FF920F931F93CF93DF9399E072
:10202000F92E21C0F894E0912002F091210206815E
:102030001781C8010C960E94B80F7894E801229687
:10204000CE010E94B80FF80196898091EC018917A2
:1020500010F49093EC019F9DC00111248D509E4F70
:10206000BE010E94670F80911B028823D9F60E944F
:1020700021042091ED013091EE01821B930B90938E
:10208000F0018093EF0189E0F82E53C00196909300
:10209000F2018093F101215030403093F001209300
:1020A000EF01892B09F03EC02091170230911802F0
:1020B0008091190290911A0290931802809317024E
:1020C00030931A02209319022DC00580F681E02D6D
:1020D000C681D7812091F1013091F2018A819B81E3
:1020E0002817390730F1F8948E010E5F1F4FC80191
:1020F0000E94B80F8C899D89892B21F0CE010C9606
:102100000E94B80F78949E898091EC01891710F491
:102110009093EC019F9DC00111248D509E4FB801FA
:102120000E94670FE0911702F091180280818823C6
:1021300061F62091EF013091F0018091F1019091D1
:10214000F2012115310509F0A1CF9093EE018093A2
:10215000ED019091EC0129E006C0992319F4109249
:10216000EC0132C09150929FD0011124AD50BE4F6E
:102170008C91882391F39093EC011196ED91FC9151
:1021800012970280F381E02D1296FC93EE93119743
:10219000CD010396E817F90731F4828193811296F5
:1021A0009C938E9311971196ED91FC911297068056
:1021B000F781E02DF093EB01E093EA01208131817A
:1021C000CF016789F9010995DF91CF911F910F9197
:1021D000FF9008950F931F93CF93DF93EB0100912E
:1021E000F1011091F201080F191F8091EA019091FD
:1021F000EB0102960E94B80FE091EA01F091EB0129
:10220000138302838091F1019091F201BF016E5F0F
:102210007F4F0817190728F48091190290911A022C
:1022200004C080911702909118020E94860F209797
:1022300049F06091EA017091EB01645F7F4FCE013C
:102240000E94860FDF91CF911F910F910895AF9259
:10225000BF92CF92DF92EF92FF920F931F93CF9393
:10226000DF936C01B62EA42E8AE190E00E94B1119A
:10227000EC01009711F48FEF59C08091EA01909121
:10228000EB01892B21F5D093EB01C093EA0183EF99
:1022900091E00E94530F8CEF91E00E94530F25E0D4
:1022A000E22E22E0F22EC7010E94530F0EE012E050
:1022B000C8010E94530F8BE192E00E94530FF092ED
:1022C0001802E092170210931A0200931902EB2CE5
:1022D000BB2011F0EE24E394198E188EEE8AAF8A9B
:1022E000FE01C192D1928F01CF010E94630FCE01F6
:1022F0000C960E94630FD987C887DB8BCA8B82E05C
:1023000090E08E1991099D878C879E898091EC01C0
:10231000891710F49093EC0189E0989FC001112473
:102320008D509E4FB8010E94670F81E0DF91CF91E1
:102330001F910F91FF90EF90DF90CF90BF90AF90E3
:1023400008950895109225021092240208952BED0D
:1023500035E08091240290912502281B390BC90198
:102360000895CF93DF93EC010E941B048091260215
:1023700090912702892B31F489E292E09093270211
:10238000809326022091240230912502CE01820FF3
:10239000931F45E08B3D940770F42817390758F4D4
:1023A000C0912602D0912702C20FD31F909325021D
:1023B0008093240202C0C0E0D0E00E945D07CE01FD
:1023C000DF91CF910895FC0191E1908322E2229365
:1023D00083E3829362937293129280E882931292C3
:1023E00082E0829383E0829384E0829385E082930B
:1023F00086E0829387E0829388E0829389E08293EB
:1024000080E18293929382E1829383E1829384E1DB
:10241000829385E1829386E1829387E1829388E1CA
:10242000829389E1829380E2829381E28293229374
:1024300083E282934293529386E2829387E282936D
:1024400088E2829389E2829380E3829381E382939C
:102450003197CF010895109289008CE7809388000E
:102460008BE080938100EFE6F0E0808182608083E2
:10247000A0918D01B0918E01CD91CDBFDD91DEBFD8
:10248000FF91EF91DF91CF91BF91AF919F918F918C
:102490007F916F915F914F913F912F911F910F917C
:1024A000FF90EF90DF90CF90BF90AF909F908F9074
:1024B0007F906F905F904F903F902F901F900F9064
:1024C0000FBE0F90089581E0089508950F920FB602
:1024D000F8940F921F9211242F923F924F925F9285
:1024E0006F927F928F929F92AF92BF92CF92DF9224
:1024F000EF92FF920F931F932F933F934F935F930E
:102500006F937F938F939F93AF93BF93CF93DF93FB
:10251000EF93FF93A0918D01B0918E010DB60D92B6
:102520000EB60D920E942A06882311F00E944004E4
:10253000A0918D01B0918E01CD91CDBFDD91DEBF17
:10254000FF91EF91DF91CF91BF91AF919F918F91CB
:102550007F916F915F914F913F912F911F910F91BB
:10256000FF90EF90DF90CF90BF90AF909F908F90B3
:102570007F906F905F904F903F902F901F900F90A3
:102580000FBE0F9008950E94661218950F920FB615
:10259000F8940F921F9211242F923F924F925F92C4
:1025A0006F927F928F929F92AF92BF92CF92DF9263
:1025B000EF92FF920F931F932F933F934F935F934D
:1025C0006F937F938F939F93AF93BF93CF93DF933B
:1025D000EF93FF93A0918D01B0918E010DB60D92F6
:1025E0000EB60D920E944004A0918D01B0918E0113
:1025F000CD91CDBFDD91DEBFFF91EF91DF91CF9106
:10260000BF91AF919F918F917F916F915F914F910A
:102610003F912F911F910F91FF90EF90DF90CF90FE
:10262000BF90AF909F908F907F906F905F904F90F2
:102630003F902F901F900F900FBE0F9008958091A4
:102640002E0108950F931F93082F893008F008E09A
:1026500081E061E040E00E942B0F90930508809399
:102660000408892B89F010E007C08EE893E160E050
:10267000412F0E9427111F5F1017B8F387E493E1E1
:1026800061E040E00E9427111F910F9108950F9380
:102690001F93DF93CF930F92CDB7DEB78C01FC0170
:1026A000808D918DF1E0823C9F07B1F021E0833C69
:1026B000920751F1892B61F58091040890910508EA
:1026C000BE016F5F7F4F4FEF5FEF0E94440C8C3F66
:1026D00071F482EC91E00FC080910408909105089C
:1026E000BE016F5F7F4F40E050E00E94440C8B3F83
:1026F00031F483EC91E0F801918F808F09C0813033
:1027000019F010922E01D8CF89810E94F800D4CF01
:102710000F90CF91DF911F910F9108950F931F9309
:10272000DF93CF930F92CDB7DEB769838C01FC01A5
:10273000808D918DF1E082389F07F1F021E08338A0
:10274000920718F4892B41F03EC0E1E083389E07E0
:1027500039F186599140B9F58091040890910508A6
:10276000BE016F5F7F4F40E050E00E94890C8C3FBC
:1027700071F482E891E024C08091040890910508EA
:10278000BE016F5F7F4F40E050E00E94890C8B3F9D
:1027900019F483E891E014C0813011F010922E01F9
:1027A000E981F0E0EE0FFF1FE15DFE4F8081918136
:1027B000009721F060E070E00E94EA1086E991E065
:1027C000F801918F808F0F90CF91DF911F910F9122
:1027D00008959F92AF92BF92CF92DF92EF92FF92B5
:1027E0000F931F93DF93CF9300D000D0CDB7DEB708
:1027F0008C01EE24FF249BE7A92EB12CC12CD12CF7
:102800009924939403C081E0E82EF12CA982BA8226
:10281000CB82DC8289819A81AB81BC81895B9B46BA
:10282000AC4FBF4F89839A83AB83BC8369817A8124
:102830008B819C812DEF3FEF4FEF5FEF0E94BE1524
:1028400069837A838B839C8369817A818B819C8164
:1028500027E030E040E050E00E942616C901DA018E
:1028600089839A83AB83BC8389819A81AB81BC8144
:102870008B519747AE4FBF4F31F6E114F10409F089
:10288000C2CF0FB6F8940F92F80190820F900FBE4E
:10289000BDCF8091060810920608811181E008954D
:1028A000EF92FF920F93082F89EE93E16FE371E0AF
:1028B00045E550E026E038E0EE24FF240E94260A99
:1028C0000F91FF90EF90089580910708882321F0E1
:1028D00080910808811181E0109207081092080881
:1028E0000895EF92FF920F931F93182F8AE062E0F2
:1028F00040E00E942B0F90930A0880930908892BCF
:10290000B9F089ED94E167E471E045E550E029E034
:1029100038E0012FEE24FF240E94260A8DE994E17D
:102920006FE471E045E550E029E038E00E94260AB6
:102930001F910F91FF90EF900895CF92DF92EF9249
:10294000FF920F931F93DF93CF9300D0CDB7DEB7E5
:102950007C011A82198200E010E06E010894C11C0B
:10296000D11C1FC0F70180819181B60140E050E089
:1029700020E00E943E0E813011F001E011C00023E2
:1029800051F40FB6F8940F92809108088F5F8093EE
:1029900008080F900FBE89819A8101969A838983D6
:1029A0001F5F1330FCF283E090E00E94220910E0E8
:1029B000D9CF9F92AF92BF92CF92DF92EF92FF92C8
:1029C0000F931F93DF93CF9300D0CDB7DEB7982E30
:1029D000C92EDD24EE24FF245E010894A11CB11C45
:1029E00023C0F80180819181B50140E050E020E0F2
:1029F0000E94840D8130C1F429813A812E153F0552
:102A000019F0DD24D3940CC0DD2051F40FB6F894F6
:102A10000F92809107088F5F809307080F900FBE79
:102A200079010894E11CF11C092D1C2DF80180810D
:102A300091810E94470B8823A1F68FEE9FEF0E94A1
:102A40002209F2CF80910B0810920B08811181E0CE
:102A50000895EF92FF920F931F93182F20930C0865
:102A6000CB01BA0148E10E94F801012F015086E92B
:102A700095E167E571E045E550E020E030E0EE24C7
:102A8000FF240E94260A83E595E16DE571E045E5A6
:102A900050E020E030E0012F0E94260A1F910F91A4
:102AA000FF90EF900895EF92FF920F931F93DF93A3
:102AB000CF930F92CDB7DEB700E07E010894E11C02
:102AC000F11C11E480E090E0B7014FEF5FEF0E944E
:102AD000EE01882351F08981811711F011E009C0BE
:102AE00080910C088F5F0E94F8001F5F193551F725
:102AF00010E080910C088F5F60E00E941B01113094
:102B000069F407C080E090E0B7014FEF5FEF0E94EB
:102B1000EE0189818835B1F70F5FD3CF02308CF693
:102B200080910B088F5F80930B08CBCF1F9311E42C
:102B30000EC080E090E0612F40E050E00E94D001A4
:102B4000813021F480910C080E94F8001F5F193534
:102B500084F380910C0860E00E941B010E94210414
:102B6000039666E970E00E94DD158233910510F44A
:102B700082E390E00E94220911E4DBCF629FD00142
:102B8000739FF001829FE00DF11D649FE00DF11D28
:102B9000929FF00D839FF00D749FF00D659FF00DD7
:102BA0009927729FB00DE11DF91F639FB00DE11DC4
:102BB000F91FBD01CF0111240895AA1BBB1B51E1D0
:102BC00007C0AA1FBB1FA617B70710F0A61BB70B9D
:102BD000881F991F5A95A9F780959095BC01CD0142
:102BE000089597FB092E07260AD077FD04D0E5DF6C
:102BF00006D000201AF4709561957F4F0895F6F77E
:102C0000909581959F4F0895A1E21A2EAA1BBB1B98
:102C1000FD010DC0AA1FBB1FEE1FFF1FA217B307A8
:102C2000E407F50720F0A21BB30BE40BF50B661FBE
:102C3000771F881F991F1A9469F760957095809582
:102C400090959B01AC01BD01CF01089597FB092E22
:102C500005260ED057FD04D0D7DF0AD0001C38F46B
:102C600050954095309521953F4F4F4F5F4F0895B8
:102C7000F6F790958095709561957F4F8F4F9F4F98
:102C80000895FB01DC0102C001900D9241505040BB
:102C9000D8F70895AEE0B0E0E0E5F6E10C9417193E
:102CA0000D891E8986E08C831A8309838FEF9FE745
:102CB0009E838D839E01275E3F4FCE0101966F89D3
:102CC000788DA9010E946E162F813885020F131F7F
:102CD000F80110822E96E4E00C943319ABE0B0E0DA
:102CE000E4E7F6E10C9409193C012B015A01FC01BF
:102CF00017821682838181FD03C06FEF7FEFC6C10B
:102D00009AE0892E1E010894211C311CF3012381B5
:102D1000F20123FD859123FF81912F01882309F47E
:102D2000B2C1853239F423FD859123FF81912F01B2
:102D3000853229F490E0B3010E947F18E7CF982FE5
:102D4000FF24EE249924FFE1FF15D0F09B3269F0B7
:102D50009C3228F4903259F0933291F40EC09D3297
:102D600049F0903369F441E024C052E0F52A84E050
:102D7000F82A28C098E0F92A25C0E0E1FE2A22C0FE
:102D8000F7FC29C0892F80538A3070F4F6FE05C005
:102D9000989C902C1124980E15C0E89CE02C1124CE
:102DA000E80EF0E2FF2A0EC09E3229F4F6FC6BC159
:102DB00040E4F42A07C09C3619F450E8F52A02C012
:102DC000983649F4F20123FD959123FF91912F014B
:102DD000992309F0B8CF892F8554833018F0805299
:102DE000833038F444E050E0A40EB51E5FE359830D
:102DF0000FC0933631F0933779F0933509F056C010
:102E000020C0F5018081898342E050E0A40EB51E08
:102E1000610101E010E012C0F501C080D180F6FC34
:102E200003C06FEF7FEF02C0692D70E042E050E019
:102E3000A40EB51EC6010E9474188C015FE7F5222E
:102E400014C0F501C080D180F6FC03C06FEF7FEFA6
:102E500002C0692D70E042E050E0A40EB51EC6012C
:102E60000E9469188C0150E8F52AF3FE07C01AC0C9
:102E700080E290E0B3010E947F18EA948E2D90E0EA
:102E800008171907A8F30EC0F601F7FC8591F7FEA5
:102E900081916F0190E0B3010E947F18E110EA94E4
:102EA000015010400115110579F7EAC0943611F070
:102EB000993669F5F7FE08C0F5012081318142811C
:102EC000538184E090E00AC0F501808191819C01EA
:102ED000442737FD4095542F82E090E0A80EB91E9C
:102EE0009FE6F92257FF09C05095409530952195EE
:102EF0003F4F4F4F5F4FE0E8FE2ACA01B901A101E1
:102F00002AE030E00E94AB18D82ED21840C0953786
:102F100029F41F2D1F7E2AE030E01DC01F2D197FD0
:102F20009F3661F0903720F4983509F0ACC00FC09F
:102F3000903739F0983709F0A6C004C028E030E097
:102F40000AC0106114FD146020E130E004C014FDDB
:102F5000166020E132E017FF08C0F5016081718141
:102F60008281938144E050E008C0F5018081918125
:102F7000BC0180E090E042E050E0A40EB51EA1014B
:102F80000E94AB18D82ED2188FE7F82EF122F6FE49
:102F90000BC05EEFF522D91438F4F4FE07C0F2FC42
:102FA00005C08FEEF82202C01D2D01C0192DF4FEC0
:102FB0000DC0FE01ED0DF11D8081803319F499EEF5
:102FC000F92208C01F5FF2FE05C003C08F2D86786E
:102FD00009F01F5F0F2DF3FC14C0F0FE0FC01E158B
:102FE00010F09D2C0BC09D2C9E0C911A1E2D06C01E
:102FF00080E290E0B3010E947F181F5F1E15C0F3AE
:1030000004C01E1510F4E11A01C0EE2404FF0FC025
:1030100080E390E0B3010E947F1802FF1DC001FD14
:1030200003C088E790E00EC088E590E00BC0802FD9
:10303000867891F001FF02C08BE201C080E2F7FCCC
:103040008DE290E0B3010E947F1806C080E390E01B
:10305000B3010E947F189A94D914C0F3DA94F10155
:10306000ED0DF11D808190E0B3010E947F18DD20FD
:10307000A9F706C080E290E0B3010E947F18EA94AD
:10308000EE20C1F743CEF30166817781CB012B9609
:10309000E2E10C942519DC01CB01FC01F999FECF8A
:1030A00006C0F2BDE1BDF89A319600B40D924150D0
:1030B0005040B8F70895262FF999FECF1FBA92BD58
:1030C00081BD20BD0FB6F894FA9AF99A0FBE019609
:1030D0000895FC010590615070400110D8F780956B
:1030E00090958E0F9F1F0895FC01615070400190D4
:1030F0000110D8F7809590958E0F9F1F08950F931C
:103100001F93CF93DF938C01EB018B8181FF1BC059
:1031100082FF0DC02E813F818C819D812817390748
:1031200064F4E881F9810193F983E88306C0E885B6
:10313000F985802F0995892B31F48E819F81019625
:103140009F838E8302C00FEF1FEFC801DF91CF91E5
:103150001F910F910895FA01AA27283051F12031CB
:1031600081F1E8946F936E7F6E5F7F4F8F4F9F4F1B
:10317000AF4FB1E03ED0B4E03CD0670F781F891F5D
:103180009A1FA11D680F791F8A1F911DA11D6A0F2B
:10319000711D811D911DA11D20D009F468943F91DE
:1031A0002AE0269F11243019305D3193DEF6CF01DD
:1031B0000895462F4770405D4193B3E00FD0C9F7A3
:1031C000F6CF462F4F70405D4A3318F0495D31FD10
:1031D0004052419302D0A9F7EACFB4E0A695979563
:1031E000879577956795BA95C9F700976105710539
:1031F00008959B01AC010A2E069457954795379583
:103200002795BA95C9F7620F731F841F951FA01DDC
:1032100008952F923F924F925F926F927F928F927A
:103220009F92AF92BF92CF92DF92EF92FF920F9355
:103230001F93CF93DF93CDB7DEB7CA1BDB0B0FB65F
:10324000F894DEBF0FBECDBF09942A88398848881C
:103250005F846E847D848C849B84AA84B984C884B2
:10326000DF80EE80FD800C811B81AA81B981CE0FA9
:10327000D11D0FB6F894DEBF0FBECDBFED0108958E
:04328000F894FFCFF0
:10328400446973706C61790054656D706572617422
:10329400757265203D202564202A430D0A00FF52E3
:1032A40065673100526567320049444C4500019618
:1032B40000C800FA002C015E019001C201F401492A
:1032C4006E744D6174680051436F6E734E420051C9
:1032D40050726F644E4200434F4D547800434F4D3B
:0432E400527800001C
:00000001FF
